:020000040800F2
:1000000078070020A1010008352D0008012A00080A
:10001000B52B0008510B0008552D0008000000000A
:100020000000000000000000000000003D2D00085E
:10003000550B000800000000392D0008412D000874
:10004000BB010008BB010008BB010008BB010008A0
:10005000BB010008BB010008BB010008BB01000890
:10006000BB010008BB010008BB010008BB01000880
:10007000BB010008BB010008BB010008BB01000870
:10008000BB010008BB010008BB010008BB01000860
:10009000BB010008BB010008BB010008BB01000850
:1000A000BB010008492D0008BB010008BB01000886
:1000B000BB010008BB010008BB010008BB01000830
:1000C000BB010008BB010008BB010008BB01000820
:1000D000BB010008BB010008BB010008BB01000810
:1000E000590B0008BB010008BB01000800F002F832
:1000F00000F047F80AA090E8000C82448344AAF17B
:100100000107DA4501D100F03CF8AFF2090EBAE878
:100110000F0013F0010F18BFFB1A43F0010318473B
:10012000205C0000405C0000103A24BF78C878C111
:10013000FAD8520724BF30C830C144BF04680C60ED
:10014000704700000023002400250026103A28BF35
:1001500078C1FBD8520728BF30C148BF0B60704739
:10016000662905F0AC84002070471FB500F01CFB29
:1001700004000020002104F087FCE0601FBD10B5E2
:1001800010BD00F015FC1146FFF7EFFF02F0F2FE84
:1001900000F033FC03B4FFF7F2FF03BC00F076FC81
:1001A0000948804709480047FEE7FEE7FEE7FEE70B
:1001B000FEE7FEE7FEE7FEE7FEE7FEE70448054947
:1001C000054A064B70470000452D0008ED00000869
:1001D00078010020780700207803002078030020B1
:1001E0000FB41CB50C0007AA009001D02044401E9B
:1001F000074B7B4469460190069800F0B4FA002C46
:1002000003D06946002000F0C1FA1CBC5DF814FB65
:10021000A10500002DE9F0474FF0000A8946044689
:10022000C0F820A02046E1688847002876D025281D
:1002300006D0D4E901219047206A401C2062F1E7F2
:10024000E168204600258847C4F81CA00646002720
:10025000C4F818A02A2E09D0304603F0DBFC38B3CE
:1002600004EB8708303EC8F8186019E059F8041B01
:10027000204604EB87029161E1688847012F06461A
:1002800018D1E069002820DA25F020051DE0D8F813
:10029000180000EB800006EB40003038C8F818006A
:1002A0002046E1688847064603F0B4FC0028EED1FA
:1002B000012F0AD02E2E08D12046E16888477F1CE6
:1002C0000646022F45F02005C4DBA069002803DAAA
:1002D000404245F00105A061E80701D025F0100576
:1002E000B6B1A6F14100192802D8203645F40065C0
:1002F0004A463146204625604D46FFF731FF58B14A
:10030000012806D0ED1D25F0070000F1080989E756
:1003100004E005F1040985E730468AE7206ABDE874
:10032000F08770477047704710B500F041FA0068D9
:1003300010BD10B5044600F03BFA046010BD2DE975
:10034000FF4F0C461E464FF0FF378BB0D2E900013D
:10035000DDF860800A908A46C1F30A5505B93D462A
:10036000002108464FF00000BAF1000F00F44000F1
:1003700005DA00EB80004FF4400101EA50004FEA3B
:100380009059B9F1010F00DDB9460A9850EA4A00C8
:100390000ED044F61050A5F2FF3545432F14B8F1A6
:1003A000000F1ED07542291E1EDDC9F100021CE09F
:1003B000B8F1010F4FF0000001D0302103E0F2430B
:1003C00005E02154401CB042FBDB304600220021F6
:1003D00021540B99C1F80880C1E900200FB0BDE895
:1003E000F08FBD1B6D1CDEE74A4600DA694206A8A5
:1003F00000F068FA06AB93E8070003AB83E8070058
:1004000050460A9902F0B3FF8DE80700A0F50050AE
:100410001F3800900398002D0ADD42F21F014A4662
:100420000844002303A90390684603F01CFA09E07E
:10043000A0F500504A461F38002303A903906846E0
:1004400003F026FA8DE807000004000C03D04FF0FB
:10045000FF30410800E01046B8F1000F03D0002241
:10046000009215461EE0751E05D400F0A5F9303245
:1004700062556D1EF9D5B3460122084302D0002211
:100480007F1C04E02078302801D100227F1E002A42
:10049000099784D01DE0112D07DA00F08DF9303274
:1004A00062556D1C50EA0102F5D1084302D0009854
:1004B000C8B10EE00021681E05E0235C625C635455
:1004C0002254401E491C8142F7DBAB46A81B401E4C
:1004D0000990002004F80B000B98099AC0F80880D6
:1004E000C0E9002B7AE711264FF0000857E72DE905
:1004F000F04F88460446D21D22F0070191B0D1E9A1
:100500000001CDE90A0103F0FAFA02460B98C00F88
:1005100001D02D2007E02068810701D52B2002E0C3
:10052000202101EAC000032A099001D0072A05DB37
:1005300003464146204600F085F90BE1207880060D
:1005400001D5E06900E00620B8F1650F814606D0CC
:10055000B8F1660F18D0B8F1670F70D131E0002004
:10056000B9F1110F009001DB112301E009F1010342
:100570000AAA01A90CA8FFF7E2FEDDE90C7000262B
:1005800009F10105834647E001204B4600904FF0FA
:1005900000470AAA01A90CA8FFF7D1FEDDE90DB0BA
:1005A0000C995D46002610B909F101000D18B9EB50
:1005B000050003D4C0F1FF3609F10105A5EB0900E0
:1005C0002BE0B9F1010F01DA4FF001090020B9F178
:1005D000110F0090484601DD112300E003460AAAEE
:1005E00001A90CA8FFF7ABFEDDE90C704D46002613
:1005F0008346207800070AD4AB4500DA5D4601A89F
:10060000012D04DD411911F8011C302907D04F4597
:1006100002DA17F1040F04DA012082460FE06D1EA2
:10062000EEE7002F02DCED1B3E4403E0781CA842FD
:1006300000DD7D1CB81B00F1010A4FF00047207857
:10064000000703D4AA4501DB4FF0FF3A0021B7F1C0
:10065000004F0DF143088DF8431024D002202B23C6
:10066000002F01DA7F422D230A21021EA0F1010092
:1006700000DC5FB197FBF1FC97FBF1F201FB1C7C06
:1006800017460CF1300C08F801CDEEE7A8F1010097
:1006900003702188090501D5452100E06521A0F1FD
:1006A000010800F8011C09980FA9A1EB0807FF1D1C
:1006B00000B10120411901EBEA70A1693844081A20
:1006C000401EA0612078C00602D42046AFF300800F
:1006D000099828B1D4E901219047206A401C206282
:1006E0002078C00622D52046AFF300801EE0002E01
:1006F00004DBB34502DD01A8805D00E03020D4E9D1
:1007000001219047206A401C2062761CAAF101005A
:100710005FEA000A0AD100F047F8C0680168405C4F
:10072000D4E901219047206A401C2062281EA5F1CF
:100730000105DCDC07E0D4E9012118F8010B904742
:10074000206A401C2062381EA7F10107F3DC204616
:10075000AFF30080032011B041E6000001694A1C9C
:1007600002610878704700B58FB0CDE901310021F2
:10077000059105497944CDE9031011466846FFF714
:1007800049FD0FB000BD0000E5FFFFFF0A6802F859
:10079000010B0A607047D1E900239A4202D2531C30
:1007A0000B60107070470000004870473000002058
:1007B000004870471000002030B5B0F10A0271F116
:1007C00000034FEA900E4EEA817EB0EB0E0061EB23
:1007D00091014FEA101E4EEA017E10EB0E0041EB34
:1007E00011114FEA102E4EEA016E10EB0E0041EB94
:1007F00011214FEA104E4EEA014E10EB0E0041EB74
:100800001141401841F100014FEAD00040EA417027
:100810004FEAD1014FEA810444EA907410EB80055D
:1008200044EB01046D1944EB0404521BA3414FF047
:10083000000348BF0A3200D530BD401C41F1000121
:1008400030BD00002DE9F0411F4604460326016833
:10085000072A01F4006004DB08B116A505E016A51F
:1008600003E008B115A500E015A521F010002060F7
:10087000A069C01EA0610FB1401EA0612046AFF369
:1008800000804FB1D4E9012138469047206A401CCE
:100890002062C01C206206E0206AFAE7D4E9012148
:1008A00015F8010B9047761EF8D22046AFF3008072
:1008B000BDE8F0814E414E006E616E00494E46002B
:1008C000696E66002DE9F047814616468AB03548C4
:1008D00078440DC88DE80D0032487844801C03AC84
:1008E0000DC884E80D0041F69B300844372190FB89
:1008F000F1F290FBF1F5A5F1800501FB12041B3C20
:1009000002D56442012000E00020DFF898A0804674
:100910000027FA44AAF1BE0A0EE0E0070AD03246E8
:10092000684607EB470101230AEB810102F0B0FFA3
:100930008DE8070064107F1C002CEED1194F7F4416
:10094000AE3F19E0E80715D007EB04100DF1180AC7
:1009500090E80E008AE80E00C068F04201D19819B4
:1009600008903246012306A903A802F091FF03ABC9
:1009700083E807006D10641C002DE3D14FF00103E4
:1009800032466946B8F1000F03A802D002F06BFFAF
:1009900001E002F07DFFC9E90001C9F808200AB0B2
:1009A000BDE8F08728540000004870471000002080
:1009B0007546FFF7F9FFAE4605006946534620F03D
:1009C0000700854618B020B5FFF7F8FBBDE82040CA
:1009D0004FF000064FF000074FF000084FF0000BFB
:1009E000AC46ACE8C009ACE8C009ACE8C009ACE86A
:1009F000C00921F007018D46704710B50446AFF3DA
:100A000000802046BDE81040FFF7C4BB4FF0013C1A
:100A100050F8042B51F8043B9A4221D1A2EB0C036D
:100A2000934313EACC1317D150F8042B51F8043B2D
:100A30009A4215D1A2EB0C03934313EACC130BD1CA
:100A400050F8042B51F8043B9A4209D1A2EB0C0355
:100A5000934313EACC13DBD04FF00000704700BF84
:100A6000D01A01BAB1FA81F101F0180122FA01F0AD
:100A7000CB40DBB2C0B2C01AC1F120012CFA01F3A5
:100A8000D11A914311EAC311E6D1704701491820E8
:100A9000ABBEFEE72600020070470000B0B582B092
:100AA00004460020019021688A68D2074ED18868E8
:100AB00040F00100886040F20800C2F200000068C7
:100AC0004DF68361C4F21B31A0FB0101880C01903B
:100AD0000198A0B1019801380190019878B101986E
:100AE00001380190019850B10198013801900198A6
:100AF00028B101980138019001980028EAD100F04E
:100B0000EDFC21688968C9071CD1054603E000BFD8
:100B10008068C00719D100F0E1FC411B206803295F
:100B2000F6D38168C907F3D1A06A40F01000A06233
:100B3000E06A40F00100E062002084F82400012017
:100B400002B0B0BD002002B0B0BD002002B0B0BD08
:100B5000FEE70000704700004FF4805000F09CBB9F
:100B6000B0B581B00022009290F82420012A03D170
:100B70000221084601B0B0BD4B680122062B80F867
:100B8000242022D8D0F800C003EB830362465D1F07
:100B90001F2352F834EF03FA05F40B682EEA040E13
:100BA00003FA05F444EA0E05092B15602CD8DCF88D
:100BB000102003EB4303072589689D40AA43994011
:100BC0001143CCF8101000213EE0D0F800C00C2BEF
:100BD000624606D852F830EF03EB8303A3F12304F7
:100BE00005E052F82CEF03EB8303A3F141041F232C
:100BF00003FA04F50B682EEA050E03FA04F444EA3E
:100C00000E05092B1560D2D903EB4305DCF80C2047
:100C10001E3D07248968AC40A243A940114323F03C
:100C20000102102ACCF80C100DD142F20841C4F296
:100C30000101A1F1080294450CD0816A41F0200124
:100C40008162012100E00021002280F82420084672
:100C500001B0B0BD0A6812022FD40A68102B42F40A
:100C600000020A602BD140F20801C2F200010968BB
:100C70004DF68362C4F21B32A1FB0212910C01EB10
:100C80008101490000910099D9B100990139009181
:100C90000099C1B10099013900910099A9B1009959
:100CA00001390091009991B10099013900910099A1
:100CB00000294FF00001E8D1C6E70021C4E7002178
:100CC000C2E70021C0E70021BEE70021BCE7002108
:100CD000BAE700000068C06C70470000002804BF3D
:100CE0000120704770B50646044656F8280F20B11B
:100CF00021688868C0070BD114E00020E06284F806
:100D00002400204600F09EF821688868C00709D0BA
:100D1000886820F00100886000F0E0FB21688A68A4
:100D2000D20726D132683068D2063BD441F2021293
:100D300090430230A062E069D4E9013240EA030C3A
:100D4000531EB3FA83F35D091346B2F5807F18BFD3
:100D50002B02207D257B01284CEA450032D135B39A
:100D6000A56A45F02005A562E56A45F00105E56242
:100D700028E0054603E000BF8868C007D2D000F035
:100D8000ADFB401B21680328F6D38868C007F3D069
:100D9000A06A40F01000A062E06A40F00100E0624A
:100DA000A06AA06A40F010010120316070BDD4F843
:100DB00018C04EF20005CFF6FF7505EB4C352B43FE
:100DC00043F400634D68B2F5807F25F4694543EA3A
:100DD00005034B608B684FF2FD75CFF6E17503EAB2
:100DE000050343EA00038B6001D0012A06D1226982
:100DF0000023CFF6F07303EB025200E00022CB6A2F
:100E000023F470031A43CA62896840F6FE62CFF683
:100E10001F721140814207D10020E062A16A0122C5
:100E200062F30101316070BDA06A40F0100020F053
:100E30000200A06254F82C0F40F001010120264668
:100E4000316070BD80B586B0014640F60000C4F246
:100E50000100096800F5E05291424FF00001CDE930
:100E60000411CDE9021101D006B080BD41F2180194
:100E7000C4F202010A6842F400720A600A6802F4CD
:100E800000720192019A0A6842F004020A6009683D
:100E900001F00401019101990121029103210391C3
:100EA00002A900F005FA06B080BD0000F0B581B0DF
:100EB00000270D460446009700F010FB21688A6861
:100EC000D20542D406464868C00503D4C86A10F467
:100ED000700F43D040F20800C2F200000768022001
:100EE00000F074FE216844F624130A69B7FBF0F0A1
:100EF000C2F292431A4206D1CA6844F62413C0F2E1
:100F000092031A425CD00A6942F29243C1F2492329
:100F10001A4207D1CA6842F29243C0F249031A4208
:100F200000F0BD800A6949F24923C0F224031A4245
:100F30004FF0FC0255D1CF681F4208BF5422009BDE
:100F400002FB00F7BB4251D3BFE0A06A40F0200093
:100F5000A06284F82470012001B0F0BD0868800709
:100F600000F1B380681C00F0A680FDB90868800716
:100F700072D50868800700F1A880086880076BD5E3
:100F80000868800700F1A1800868800764D50868B8
:100F9000800700F19A80086880075DD5086880079F
:100FA000E4D592E00868800700F18F8000F096FA9F
:100FB000801B2168A842F5D908688007F2D44BE06D
:100FC0000A6942F29243C1F249231A424FF02902C0
:100FD00007D1CB6842F29247C0F249073B4208BFB3
:100FE0001422009B02FB00F7BB426ED2681C4FD05C
:100FF00055BB0098B8422FD300980130009000985C
:10100000B84262D20098B84226D3009801300090CE
:101010000098B84259D20098B8421DD300980130C8
:1010200000900098B84250D20098B84214D300986B
:10103000013000900098B842DBD346E000980130C0
:1010400000900098B84231D200F048FA801BA842C4
:10105000F4D90098B842F1D2A06A40F00400A0622E
:10106000002084F82400032001B0F0BD0098013076
:1010700000900098B84228D2009801300090009863
:10108000B84222D20098013000900098B8421CD299
:101090000098013000900098B842E7D315E0542240
:1010A000009B02FB00F7BB42A0D30EE021680CE0DE
:1010B0000868800709D40868800706D40868800794
:1010C0005CBF08685FEA8070F2D56FF012000860BC
:1010D000A06A40F40070A062886800F46020B0F557
:1010E000602F01D1207B10B1002001B0F0BDA06ABB
:1010F00020F48070A062A06AC004F5D4A06A40F019
:101100000100A062002001B0F0BD000010B504464F
:1011100090F82400012804BF022010BD012084F8AB
:1011200024002046FFF7BAFC18B1002184F82410EF
:1011300010BD42F2044C2068A16AC4F2010C40F2D6
:10114000013291430CF57F7201F580719042A162EA
:1011500033D0A16A21F48011A1624168490504D508
:10116000A16A012363F30D31A162A16A0023C904BE
:101170004FF0000144BFE16A21F00601E1626FF027
:10118000020184F824300160816801F46021B1F526
:10119000602F06D190420AD1DCF8001011F4702FB4
:1011A00005D0816841F480118160002010BD816804
:1011B00041F4A0018160002010BDDCF8001011F4A2
:1011C000702FC6D0A16A41F48011A162DCF8001032
:1011D0004905C5D4C9E70000B0B5044690F824001D
:1011E000012804BF0220B0BD0121206884F824102A
:1011F0008168C90709D0816821F00101816000F090
:101200006DF921688968C9070ED1214651F8280F68
:1012100041F2011220EA0202002042F001020A60BB
:10122000002184F82410B0BD054602E08068C007A4
:10123000EBD000F053F9411B20680329F6D38168F5
:10124000C907F3D0A06A214640F01000A06251F80F
:101250002C2F0120E1E70000B0B5044600F03EF974
:10126000054640F20000C2F200000078611C18BF81
:10127000044400BF00F032F9401BA042FAD3B0BDD5
:10128000B0F5805F18BF704740F60000C4F201005F
:10129000082100F015B9000040F21441C4F2010128
:1012A0000A68024214BF08607047FFF7E9BF0000F8
:1012B0002DE9F04F82B00E68002E00F0FD8040F264
:1012C0000C4C41F200424FF6FF7BC4F2010CC4F219
:1012D0000102042300240127C1F2100B4FF0000A81
:1012E0004FF000094FF00F0E904208BF0323009308
:1012F0003EE00123BB402B4342F82B30D1F804B031
:1013000040F20047C4F201075FEACB22BA6854BF3B
:1013100022EA080242EA0802BA60DCF800205FEA2A
:101320008B2354BF22EA080242EA0802CCF80020CC
:101330007A685FEA8B3354BF22EA080242EA080265
:101340007A605FEACB333A684FF6FF7B54BF22EAFC
:10135000080242EA08023A600127C1F2100B0E6847
:101360000AF1010A36FA0AF204F1040400F0A4803A
:1013700007FA0AF816EA080FF1D04A685A4511DC54
:10138000122A51D8DFE802F0340A42465050505039
:10139000505050505050505050494D00D1F80C9082
:1013A00042E000BF4FF6FF73C1F221039A420FDC07
:1013B0000023C1F211039A421AD00023C1F2120392
:1013C0009A4215D00023C1F221039A4210D02BE09B
:1013D0000023C1F222039A420AD00023C1F2310352
:1013E0009A4205D00023C1F232039A421CD100BFB9
:1013F0008A6842B1012A14BFC0F81480C0F8108076
:101400004FF0080910E04FF004090DE0CA6802F13E
:10141000080909E04FF0000906E0CA6802F1040972
:1014200002E0CA6802F10C0922460346BAF1080F2D
:1014300024BF203A04331D680EFA02F6B54309FAB8
:1014400002F22A431A60CA79D2067FF588AF41F2C8
:101450001803C4F202031A684FEA9A0B42F0010221
:101460001A601A6804F00C0702F001020192019A56
:1014700040F20042C4F20102A2F57E7252F82B3013
:1014800040F600060EFA07F5C4F20106B04223EA60
:1014900005050FD040F60043C4F2010398423FF423
:1014A00028AF41F20003C4F201039842009B08BF39
:1014B00002231FE700231DE702B0BDE8F08F000004
:1014C000C26802EA0103914341EA034101617047A6
:1014D000002A08BF090401617047000040F274103F
:1014E000C2F2000000687047B0B5B0B3044690F88F
:1014F0003D0028B9002084F83C00204600F07EFA28
:10150000242084F83D002068016821F00101016079
:10151000016841F400410160016821F4004101606B
:1015200000F02CFD48F28041C0F21E0140F600128E
:1015300088424FF00001C0F23D02656838BF0121CA
:10154000904248F2A1624FF00003C0F2010238BF9E
:101550000123954238BF0B460BB10120B0BD4DF6BB
:101560008361C4F21B31A0FB011221684FEA924C47
:101570004B6823F03F0343EA92424A600A6A48F20A
:10158000A063C0F201039D4222F03F0313D80CF187
:10159000010201386D001A43B0FBF5F00A62CA6916
:1015A00001304CF6FF736FF31F3022EA030C04285E
:1015B00098BF04203FE04FF496720CFB02FC44F607
:1015C000D352C1F26202ACFB022C012202EB9C124C
:1015D0001A430A62CA69A3684CF6FF7C22EA0C0C23
:1015E000A0F1010E9BB119206843BEFBF0F004226C
:1015F000013062F31F30000512D09BB119206843FF
:10160000BEFBF0F00422013062F31F3011E005EB65
:101610004500BEFBF0F001306FF31F300005ECD148
:10162000012008E005EB4500BEFBF0F001306FF350
:101630001F3040F4004040EA0C00C8610868D4E95B
:10164000072320F0C000104318430860886848F260
:10165000FF3204F10C0C90439CE82C10184310430B
:101660008860C86820F0FF00284340EA0C00C8608A
:10167000086840F00100086000202021206484F800
:101680003D10206384F83E00B0BD00002DE9F0411C
:1016900082B01E46174688460446FFF71FFF94F89F
:1016A0003D10202920D10546206800BF81698907A7
:1016B00016D5FFF713FF411B20681A29F6D381695D
:1016C0008907F3D500202021206384F83D1084F899
:1016D0003E00216C41F02001216484F83C0003E0CD
:1016E00094F83C10012903D1022002B0BDE8F0813A
:1016F000012184F83C100168C90703D1016841F059
:1017000001010160016821F400610160212184F878
:101710003D10102184F83E10002121646762668527
:10172000618D089E21850021CFF6FF71E162E16A9B
:1017300011F5803F18BF012938D1016841F480714B
:101740000160771C3BD04169C90742D11EB910E046
:101750004169C9073DD1FFF7C1FE411B2068B14275
:10176000F6D94169C907F3D109E000BF4169C9074A
:101770002FD1FFF7B3FE20684169C907F6D10021D8
:101780002022216384F83D2084F83E10226C42F030
:101790002002226484F83C100068C00544BF4FF466
:1017A00000702064012002B0BDE8F0810829C4D097
:1017B000216B1229C1D0C4E74169C90709D1416928
:1017C000C90706D14169C90704BF41695FEAC17110
:1017D000F2D02169B1F5804F06D1FE2101EA08015E
:1017E000002F016144D175E0062101EAD811F031E2
:1017F0000161AFB34169090735D44169002E01F495
:10180000806100F0C980002940F0D480FFF766FEB7
:10181000411B2068B14203D94169090740F1E280C8
:10182000416909071FD441694905EFD5C2E0416903
:10183000490500F1BF804169090714D44169490590
:1018400000F1B880416909070DD44169490500F1EB
:10185000B1804169090706D44169490500F1AA80B0
:1018600041690907E3D5FF2101EA080101618FB34E
:101870004169890731D44169002E01F480617DD02E
:10188000002940F09780FFF729FE411B2068B142F4
:1018900003D94169890740F1A580416989071CD4B2
:1018A00041694905EFD585E04169490500F182802C
:1018B0004169890711D4416949057BD44169890788
:1018C0000BD44169490575D44169890705D441693B
:1018D00049056FD441698907E6D500210191416925
:1018E000019180690190019806E000BF20463146D1
:1018F0002A4601F087F820BB208D78B32046314678
:101900002A4601F0EBF8E0B9606A2168024612F855
:10191000013B0B616262628D013A6285228D571E26
:1019200027854B693F0418BF13F00403DED04378CA
:1019300002300B616062608D01386085901E2085E9
:10194000D4E7206C04287FF42DAF2068016841F4AF
:1019500000710160012002B0BDE8F08120680168DB
:1019600041F400710160202084F83D00002084F8DB
:101970003E0084F83C0002B0BDE8F081D1B9FFF729
:10198000ADFD2068416989072CD541698907A4D438
:1019900041694905F3D50DE061B9FFF79FFD206866
:1019A000416909071ED5416909073FF55CAF4169E7
:1019B0004905F2D5016841F4007101606FF480615E
:1019C000416100202021206384F83D1084F83E000E
:1019D000216C41F00401216484F83C00012002B034
:1019E000BDE8F08100202021206384F83D1084F8B8
:1019F0003E00216C41F02001EDE7000010B586B0FB
:101A0000016845F20040C4F2000081424FF000013D
:101A1000CDE90411CDE9021101D006B010BD41F2AB
:101A20001804C4F20204216800F5384041F00801AE
:101A30002160216801F0080101910199C021029102
:101A4000122103910321059102A9FFF731FC60687F
:101A500040F400106060606800F40010019001988C
:101A600006B010BD40F2000040F27411C2F2000056
:101A7000C2F2000100780A68104408607047000054
:101A800080B542F20000C4F20200016841F010018A
:101A90000160032000F08AF8002000F005F800F053
:101AA00027F8002080BD000070B540F20006C2F2A9
:101AB000000640F208013278C2F200014FF47A7356
:101AC0000968B3FBF2F20446B1FBF2F1084600F0FC
:101AD0004BFC0F2C4FF0010508D838B94FF0FF3000
:101AE00021460022002500F035F87460284670BDBC
:101AF00082B041F21800C4F202000168022241F0F3
:101B000001010160016801F0010101910199416841
:101B100041F080514160406800F080500090009892
:101B20000420C4F20100016862F31A61016002B08E
:101B300070470000002848BF704700F01F010122D5
:101B400002FA01F14EF200124009CEF2000242F810
:101B50002010704710B54EF60C5CCEF2000CDCF88D
:101B60000030C3F3022E8EF00704042C28BF042497
:101B7000BEF103034FF0FF3E0EFA04F438BF00231A
:101B8000A14399400EFA03F39A4300F00F03043B7C
:101B90001143634409010C3300F16042B0F1FF3F8F
:101BA000C8BF02F56443197010BD00004EF60C5119
:101BB000CEF200010A684FF6FF031A4060F30A22D2
:101BC00042F0806040F0FD700860704780B50128E9
:101BD00018D0022835D0102831D141F20401C4F2C6
:101BE00002010A6851F8040CC00128D5C2F38340F1
:101BF0002CA3185CD2033BD440F60012C0F23D0285
:101C0000504341E041F20400C4F20200C16940F2D5
:101C100002320A40B2F5817F04BF4FF4004080BD1C
:101C200001F44071B1F5407F1AD0B1F5007F06D1C3
:101C3000006A49F64041800701EAE07080BD00205B
:101C400080BD00F0AFF941F20401C4F2020109685D
:101C50000222C1F3813102EB4101B0FBF1F080BD02
:101C600050F8040C4FF22441800301EAE07080BD7B
:101C70000A6810A3C2F340429A5C41F20023C0F20A
:101C80007A03B3FBF2F250430968490248BF80BDB2
:101C90004AF6AB214000CAF6AA21A0FB0101480880
:101CA00080BD00BF02030405060708090A0B0C0DDE
:101CB0000E0F1010010200002DE9F04182B0044621
:101CC000007841F21C06C007C4F202064ED030680C
:101CD000C0000BD430684FF0010840F080503060F5
:101CE000306800F080500190019801E04FF000084A
:101CF00047F20007C4F200073868C00512D43868FC
:101D000040F480703860FFF7E9FB05463868C0058D
:101D100008D4FFF7E3FB401B6428F7D9032002B087
:101D2000BDE8F081706810F4407012D0616801F471
:101D3000407188420DD0706840F24042C4F24222A5
:101D4000012320F4407113600023C0071360716009
:101D500029D17068616820F440700843B8F1000F21
:101D6000706003D0306820F08050306020688107B8
:101D700007D556F8181CA26821F44041114346F8D3
:101D8000181CC00603D4002002B0BDE8F08156F84C
:101D9000180CE16820F48000084346F8180C002075
:101DA00002B0BDE8F081FFF799FB054641F28837A4
:101DB00070688007CDD4FFF791FB401BB8424FF00D
:101DC0000300F5D9ECE700002DE9F04381B00028CD
:101DD00000F0838042F20008C4F202080446D8F8FA
:101DE00000000D4600F0070088420CD2D8F8000031
:101DF00020F007002843C8F80000D8F8000000F0E1
:101E00000700A84269D1206841F204098107C4F2A1
:101E1000020917D5410705D5D9F8001041F4E06152
:101E2000C9F80010010705D5D9F8001041F4605138
:101E3000C9F80010D9F80010A26821F0F001114390
:101E4000C9F80010C00741D1D8F8000000F0070021
:101E5000A8420CD9D8F8000020F007002843C8F8A1
:101E60000000D8F8000000F00700A84235D1206833
:101E7000410707D5D9F80010E26821F4E061114369
:101E8000C9F80010000708D5D9F80000216920F42E
:101E9000605040EAC100C9F80000D9F8002002F003
:101EA0000C00082841F20020C0F27A004BD145F620
:101EB0002E53C2F38341C0F60003595CD20336D4DB
:101EC00040F60010C0F23D0048433CE06068012845
:101ED00007D159F8041C89030CD4012001B0BDE8D6
:101EE000F08359F8041C022802D18901F5D501E0DC
:101EF0008907F2D5D9F8001021F003010843C9F889
:101F00000000FFF7EBFA064641F28837D9F80000E7
:101F1000616800F00C00B0EB810F95D0FFF7DEFA9E
:101F2000801BB842F2D9032001B0BDE8F083D9F894
:101F3000002045F62C53C2F34042C0F600039A5CE1
:101F40004843B0FBF2F0D9F8001045F61452C1F343
:101F50000311C0F60002515C40F2080220FA01F1C0
:101F600040F20400C2F200000068C2F200021160F8
:101F7000FFF79AFD002001B0BDE8F08340F20800B1
:101F800041F20401C2F20000C4F2020100680968D3
:101F900045F62452C1F30221C0F60002515CC8404C
:101FA0007047000040F2080041F20401C2F2000054
:101FB000C4F202010068096845F62452C1F3C22147
:101FC000C0F60002515CC840704700002DE9F041A6
:101FD00082B0002867D00446007841F20006C007AE
:101FE000C4F2020624D0706800F00C0004281AD055
:101FF000706800F00C00082802D17068C00312D489
:102000006068002800F04181B0F5803F07D031685A
:10201000B0F5A02F40F06E8141F480203060306830
:1020200040F480306CE13068800301D56068D0B343
:102030002078800718D5706810F00C0F07D07068F2
:1020400000F00C00082856D17068C00353D43068E3
:10205000800702D52069012825D13068616920F008
:10206000F80040EAC1003060207800071FD42078D3
:10207000400731D4E56995B1706800F00C0008287C
:1020800040F08B80012D0ED07068216A00F4803200
:102090008A4208D1616A00F47010884203D100209E
:1020A00002B0BDE8F081012002B0BDE8F081A06976
:1020B000B8B30020C4F242200121C0F88014FFF719
:1020C0000DFA0546706A800700F18A80FFF706FA6C
:1020D000401B0228F6D920E1F069C00033D4F06932
:1020E0004FF0010840F08050F061F06900F080503E
:1020F0000090009829E02069002840F20000C4F216
:10210000422000F0978001210160FFF7E7F90546C2
:1021100030688007A1D4FFF7E1F9401B0228F7D906
:10212000FBE00020C4F242200021C0F88014FFF739
:10213000D5F90546706A800799D5FFF7CFF9401B9E
:102140000228F7D9E9E04FF0000847F20007C4F28F
:1021500000073868C00510D4386840F480703860D3
:10216000FFF7BCF9054600BF3868C00505D4FFF786
:10217000B5F9401B6428F7D9CFE0E06800286BD0A0
:10218000012806D0316A052840F0968041F004000D
:102190003062306A40F0010094E00027C4F2422728
:1021A00000203866FFF79AF9022D05460CD100BFD2
:1021B0003068800140F1B580FFF790F9401B02289C
:1021C0004FF00300F4D96BE7306880017FF567AF0B
:1021D000FFF784F9401B02284FF00300F4D95FE7B2
:1021E00040F20800C2F20000006844F6D351C1F288
:1021F0006201A0FB0101480A019000BF00BF0198E5
:10220000411E002801913FF432AF00BF0198411EEA
:10221000002801913FF42BAF00BF0198411E002818
:1022200001913FF424AF00BF0198411E00280191A5
:10223000E4D11CE700210160FFF750F9054600BF1B
:10224000306880077FF510AFFFF748F9401B022880
:102250004FF00300F4D923E7306A20F00100306228
:10226000306A20F004003062FFF738F9054641F289
:10227000883700BF306A800733D5FFF72FF9401B3E
:10228000B8424FF00300F5D90AE7306820F48030F7
:102290003060306820F480203060FFF71FF9054679
:1022A000306880037FF5C4AEFFF718F9401B64283F
:1022B0004FF00300F4D9F3E621F001003062306AF8
:1022C00020F004003062FFF709F9054641F2883733
:1022D000306A800705D4FFF701F9401BB842F7D9EF
:1022E0001BE0B8F1000F3FF4C5AEF06920F080505C
:1022F000F061BFE621F480303060306820F4802047
:102300003060FFF7EBF80546306880033FF590AE8C
:10231000FFF7E4F8401B6428F6D9032002B0BDE8BB
:10232000F081206AB0F5803F05D17168A26821F480
:102330000031114371607168626A21F474111043B5
:102340000843706001203866FFF7C8F8044600BFF4
:10235000306880013FF5A3AEFFF7C0F8001B0228EC
:102360004FF00300F4D99BE6411E0020B0EB116F43
:102370001CBF012070474EF21002CEF200025160E5
:102380004EF62351CEF20001F0230B70072190602E
:1023900011607047704700007047000010B590F85A
:1023A0003C20012A4FF0020235D0012380F83C3056
:1023B00080F83D200268D2F804E0D2F808C00C682A
:1023C0002EF07003234340F2FF74C4F20004A242D3
:1023D000536009DCB2F1804F12D040F20043C4F2E6
:1023E00000039A420CD010E042F60043C4F201030D
:1023F0009A4205D040F60003C4F200039A4204D189
:1024000049682CF08003194391600121002280F873
:102410003D1080F83C20104610BD0000002804BF8D
:102420000120704710B5044690F83D0028B90020FF
:1024300084F83C00204600F06DF8022084F83D004E
:10244000206840F2FF730268C4F2000342F6004CB9
:102450009842C4F2010C14DCB0F1804F19D040F264
:102460000041C4F20001884213D0984217DCB0F159
:10247000804F1CD040F20041C4F20001884216D0C7
:1024800019E0604505D040F60001C4F20001884221
:10249000EBD1A16822F070020A439842E7DD604563
:1024A00005D040F60001C4F20001884203D1216941
:1024B00022F440720A43A36922F08001D4F804E0B8
:1024C000E268194360450160C262C0F828E002D1A9
:1024D0006169CCF83010012141610269D20703D053
:1024E000026922F001020261002084F8461084F89B
:1024F0003E1084F83F1084F8401084F8411084F8AE
:10250000421084F8431084F8441084F8451084F88D
:102510003D1010BD80B582B0006842F60041C4F2A3
:10252000010188421CBF02B080BD41F21800C4F214
:1025300002000168002241F400610160006801218D
:1025400000F40060019001981920FFF703FB1920A7
:1025500002B0BDE88040FFF7EDBA000090F83D10F2
:1025600001291CBF01207047022180F83D1000683E
:1025700040F2FF72C168C4F20002904241F00101D2
:10258000C16009DCB0F1804F12D040F20041C4F2CA
:10259000000188420CD012E042F60041C4F2010171
:1025A000884205D040F60001C4F20001884206D1FD
:1025B000816801F00701062904BF00207047016807
:1025C00041F00101016000207047000080B590F8E3
:1025D0003C20012A4FF0020200F0C280012380F863
:1025E0003C3080F83D20D0F800C04FF67772DCF820
:1025F000083023EA0202CCF808200B684F2B28DCB5
:102600001F2B43DD202B44D0302B42D0402B40F0F9
:10261000A980D1F804E0C968DCF82030DCF820207B
:1026200022F00102CCF82020DCF8182022F0F00281
:1026300042EA011123F00A0242EA0E02CCF8181015
:10264000CCF82020DCF8081041F0470121F03001DF
:102650007DE06F2B25DDB3F5005F46D0B3F5805FDD
:1026600077D0702B7ED1D1E901E3C968DCF808206E
:1026700043EA0E0322F47F4243EA01211143CCF8DE
:102680000810DCF8081041F0770160E00BB1102B66
:1026900068D1DCF8081021F07001194341F00701FE
:1026A00055E0502B34D0602B5CD1D1F804E0C968E0
:1026B000DCF82030DCF8202022F01002CCF82020BA
:1026C000DCF8182022F4704242EA013123F0A00223
:1026D00042EA0E12CCF81810CCF82020DCF80810D2
:1026E00041F0670121F0100131E0D1E901E3C9684F
:1026F000DCF8082043EA0E0322F47F4243EA01217A
:102700001143CCF80810DCF8081041F480411EE0B9
:10271000D1F804E0C968DCF82030DCF8202022F091
:102720000102CCF82020DCF8182022F0F00242EA66
:10273000011123F00A0242EA0E02CCF81810CCF87C
:102740002020DCF8081041F0570121F02001CCF8DE
:1027500008100022012180F83D10002180F83C1073
:10276000104680BD0122F5E770470000B0B5044671
:102770000068C168026902EA0105A90720D4680758
:1027800038D4280752D4E8066BD4E80740F0878095
:10279000280600F18E80680606D520686FF040019B
:1027A0000161204600F02AF9A80658BFB0BD216893
:1027B0006FF0200220460A61BDE8B040FFF7ECBD93
:1027C0006FF002010161012121778069800707D044
:1027D0002046FFF7C9FF002020776807D1D509E020
:1027E000204600F071F8204600F070F800202077B5
:1027F0006807C6D520686FF00401016102212177C6
:10280000806910F4407F07D02046FFF7ADFF00201D
:1028100020772807B7D509E0204600F055F8204674
:1028200000F054F8002020772807ACD520686FF01E
:102830000801016104212177C069800707D0204683
:10284000FFF792FF00202077E8069ED509E020469A
:1028500000F03AF8204600F039F800202077E8062A
:1028600093D520686FF01001016108212177C069BC
:1028700010F4407F08D02046FFF776FF0020207735
:10288000E8073FF485AF0AE0204600F01DF8204637
:1028900000F01CF800202077E8073FF479AF2068AB
:1028A0006FF001010161204600F012F828067FF563
:1028B00072AF20686FF0800101612046FFF76AFD6A
:1028C00068067FF571AF68E7704700007047000049
:1028D000B0B582B041F20004C4F20104006804F50E
:1028E000E05188421CBF02B0B0BD40F27005C2F298
:1028F000000505F1100000F09FF9686A02F0C0FEC3
:102900000B46009029A2284610210193FDF768FC90
:102910000120002100F0D6FA27A000F0FFFA0120E4
:10292000002100F0CFFA284600F0F8FA6D6A002185
:10293000C4F24001284602F0EAFEA8B900200021B6
:1029400000F0C0FA29A000F0E9FA20464FF4005147
:102950000022FEF7BDFDA4F500600821002202B0B0
:10296000BDE8B040FEF7B4BD28464FF07F5102F0FD
:10297000CEFE05460020002100F0A4FA55B917A0AC
:1029800000F0CCFA20464FF4005102B0BDE8B04050
:10299000FEF796BD0DA000F0C1FA20464FF400519D
:1029A000012202B0BDE8B040FEF792BD50504D3A52
:1029B00020252E316600000020202020202020200D
:1029C000202020202020202000000000474153200C
:1029D000414E20544F414E2020202000474153209B
:1029E000524F2052492120202020200047415320CF
:1029F0004E475559204849454D2120007047000059
:102A0000FEE7000070B50368044653F8140F400752
:102A10002DD40E46481C24D05EBB00BF186840056C
:102A200049D4FEF75BFD236853F8140F400733D5F4
:102A300018684007F2D51AE0186840053BD41868BA
:102A4000400714D41868400535D4186840070ED4E0
:102A5000186840052FD4186840074FF0000048BFA1
:102A600070BD1868400526D418684007E4D50020DA
:102A700070BD154604E000BF53F8140F4007F6D4AC
:102A80001868400517D4FEF729FD401B2368B042A3
:102A9000F2D958694007EFD400202021206384F840
:102AA0003D1084F83E00216C41F02001216484F83F
:102AB0003C00012070BD6FF4806018600020202170
:102AC000206384F83D1084F83E00216C41F004013D
:102AD000216484F83C00012070BD000070B50368DB
:102AE000044653F8140F00062DD40E46481C24D07B
:102AF0005EBB00BF1868400549D4FEF7EFFC2368B1
:102B000053F8140F000633D518680006F2D51AE002
:102B1000186840053BD41868000614D418684005AE
:102B200035D4186800060ED4186840052FD41868EC
:102B300000064FF0000048BF70BD1868400526D45D
:102B400018680006E4D5002070BD154604E000BFFB
:102B500053F8140F0006F6D41868400517D4FEF792
:102B6000BDFC401B2368B042F2D958690006EFD47F
:102B700000202021206384F83D1084F83E00216C61
:102B800041F02001216484F83C00012070BD6FF405
:102B90008060186000202021206384F83D1084F8B4
:102BA0003E00216C41F00401216484F83C000120C6
:102BB00070BD0000FEE70000B0B540F2D405C2F2DF
:102BC0000005296804460846FEF7A0FA28684FF475
:102BD0007A71FEF76BF9002818BFB0BD2868FEF7C0
:102BE00079F82046002100F04FFBE06902F048FD33
:102BF0000B4648F200010246C4F24001002002F0F8
:102C000047F80023CCF22403002201F085FF01F0F5
:102C100051FFE06002F034FD45F629424AF6F50323
:102C2000CCF28F22C4F2230302F032F801F042FF0B
:102C3000A060B0BD704700002DE9F04140F2D4071C
:102C4000C2F20007396804460846FEF75FFA3868A2
:102C50004FF47A71FEF72AF920B13868BDE8F041E7
:102C6000FEF7BABA3868FEF735F82046002100258D
:102C700000F00AFBE069A66802F002FD0B4648F28C
:102C800000010246C4F24001002002F001F80023D6
:102C9000CCF22403002201F03FFF01F00BFF31468C
:102CA000206102F04FFD00210646A06102F02FFDD9
:102CB00030BB304602F0E4FC01F062F90546D4E98D
:102CC00000080E4602F0DCFC02460B462846314660
:102CD00002F0ECFB054640460E4602F0D1FC0246EF
:102CE0000B462846314601F0D3FF0B460021024631
:102CF000C4F22401002001F0B5F901F0DBFE054625
:102D000044F20001C4F21C612846656102F01AFD1C
:102D10002062FFF78FFF3868BDE8F041FEF75CBA2C
:102D200040F2D40CC2F2000CCCF80010C0E9002331
:102D300070470000FEE70000704700007047000089
:102D4000FEF790BE7047000040F22C10C2F2000067
:102D5000FFF70CBDFEE700002DE9F04182B048F618
:102D60008C0040F2D804C0F60C00C2F2000401ADA1
:102D700001904FF0640820464E212A460423CDF8E6
:102D80000080FEF783FC42F62D164627C0F60D168E
:102D900020464E212A4604230196CDF80080FEF7F6
:102DA00075FC013FF4D102B0BDE8F081F0B583B00D
:102DB0003220FEF751FA40F2D80443F63C07C2F243
:102DC000000402ADC0F60C07642620464E212A46B8
:102DD000042302970096FEF759FC0520FEF73CFA03
:102DE00020464E212A46042302970096FEF74EFC09
:102DF0000120FEF731FA20464E212A46042302978D
:102E00000096FEF743FC0A20FEF726FA42F62C0055
:102E1000C0F60C00029020464E212A46042300965C
:102E2000FEF734FC0A20FEF717FA42F62C00C8F62B
:102E30008C00029020464E212A4604230096FEF77D
:102E400025FC0120FEF708FA40F60C00C8F68C00BD
:102E5000029020464E212A4604230096FEF716FCD7
:102E60000120FEF7F9F940F60C00C1F61C000290B3
:102E700020464E212A4604230096FEF707FC012037
:102E8000FEF7EAF90120FEF7E7F940F60C00C6F676
:102E90006C00029020464E212A4604230096FEF73D
:102EA000F5FB0120FEF7D8F940F60C00CCF6CC007B
:102EB000029020464E212A4604230096FEF7E6FBA8
:102EC00003B0F0BD012804D0002808BF41F0800104
:102ED00001E041F0C00180B582B021F00F0009018E
:102EE00000F10C0208308DF8050001F10C008DF89E
:102EF000060001F108008DF8070040F2D8008DF8B7
:102F000004204FF0640CC2F2000001AA4E210423F9
:102F1000CDF800C0FEF7BAFB02B080BDF0B583B0BB
:102F2000017821B340F2D804461E6427C2F200049F
:102F300002AD00BF21F00F00090100F10D020930C0
:102F40008DF8090001F10D008DF80A0001F109006A
:102F50008DF808208DF80B0020464E212A460423C8
:102F60000097FEF793FBB17801360029E2D103B058
:102F7000F0BD000094B0FEF783FD002401204FF463
:102F80008031CDE90F44CDE90D440A90CDE90B1411
:102F90000E9002254FF4E010CDE9115113900AA8CC
:102FA0000894CDE90644CDE90444CDE90244CDE9D5
:102FB0000044FFF70BF820B1EFF3108072B600BFAA
:102FC000FEE70F20CDE904054FF480600694CDE9BB
:102FD000070404A80221FEF7F7FE20B1EFF31080EA
:102FE00072B600BFFEE74FF400400224029068462C
:102FF0000094FEF761FE20B1EFF3108072B600BFBF
:10300000FEE741F21800C4F20200016840F6000831
:1030100041F0100101600168C4F2010801F01001E3
:103020000A910A99016808F5006541F020010160E4
:103030000168012201F020010A910A9901684FF408
:10304000005641F00401016001684FF0010901F0F0
:1030500004010A910A99016841F0080101600068C1
:103060004FF4005100F008000A900A982846FEF735
:103070002FFA4046082100224FF0080A0027FEF7E9
:1030800027FACDE90A690AAE28463146CDE90C7423
:10309000FEF70EF940463146CDE90AA9CDE90C7498
:1030A000FEF706F94FF480500A900020C1F221008B
:1030B000CDE90B0908F580603146FEF7F9F82820C4
:1030C00001210022FEF746FD2820FEF733FD40F2E5
:1030D0007006C2F2000608F5E051304640F8341F91
:1030E0004FF460210C97CDE90A7707730775C1612A
:1030F000C0E90177C0F81090FDF7F0FD18B1EFF3CB
:10310000108072B6FEE706F134050AA92846CDE91B
:103110000A790C97FDF724FD18B1EFF3108072B611
:10312000FEE740F2D800A8F53441C2F2000048F2B0
:10313000A06200244FF48043C0F2010280E8160030
:10314000C0E90343C0E90544C0E90744FEF7CCF9F0
:1031500018B1EFF3108072B6FEE740F22C1008F5BC
:103160001051C2F2000040F2CF73CDE90C44CDE91A
:103170000A44CDE9044441F61F4280E81600C0E944
:103180000334C0E90544FFF749F920B1EFF310809B
:1031900072B600BFFEE74FF480500A9040F22C1048
:1031A000C2F200000AA9FFF711FA20B1EFF3108074
:1031B00072B600BFFEE70020CDE9040040F22C10FB
:1031C000C2F2000004A9FFF7E9F820B1EFF3108084
:1031D00072B600BFFEE7FFF7E9FDFFF7BDFD002077
:1031E0000021FFF76FFE1DA0FFF798FE40F2DC50B4
:1031F000FEF732F806F1100445F63563CCF20A0307
:10320000204629464FF07C52FFF78AFDFFF7A4FDC8
:1032100000200021FFF756FE15A0FFF77FFE204695
:10322000FFF7CAFC4FF47A70FEF716F8FFF794FD2B
:1032300000200021FFF746FE10A0FFF76FFE4FF4BD
:103240007A70FEF709F8FFF787FD40F22C10C2F202
:103250000000FFF783F900BFFEE700BF504841546C
:10326000204849454E204B48492047410000000076
:103270004C4F4144494E472E2E2E000053414E20C4
:1032800053414E472100000070B540F2D406C2F20F
:103290000006316804460846FDF738FF30684FF4F1
:1032A0007A71FDF703FE08B1002503E03068FDF7F1
:1032B00011FD05463068FDF729FF30684FF47A713B
:1032C000FDF7F4FD18B93068FDF704FD05443068DA
:1032D000FDF71CFF30684FF47A71FDF7E7FD18B970
:1032E0003068FDF7F7FC05443068FDF70FFF3068E4
:1032F0004FF47A71FDF7DAFD18B93068FDF7EAFC92
:1033000005443068FDF702FF30684FF47A71FDF72D
:10331000CDFD18B93068FDF7DDFC0544284602F004
:1033200007FB0021C4F2A00102F00CFA00210546BF
:1033300002F0D1F928B14BF21770C3F6D100E06169
:1033400070BD284602F09CF946F26663C4F20A0397
:103350004FF0663201F084FE4FF60063C4F2AF0313
:10336000002201F095FC01F0A5FBE06170BD5FEA71
:10337000400C08BF91F0000F4FEA8C234FEAC122A6
:1033800043EA51514FEA1C5018BF00F5F0404FEA94
:10339000300018BF41F000415FEA6C5C00F029800A
:1033A000BCF1FF3F08BF40F080407047130C06BFE0
:1033B00012044FF0100C4FF0000C130E04BF120259
:1033C0000CF1080C130F04BF12010CF1040C930F45
:1033D00004BF92000CF1020CD30F04BF52000CF199
:1033E000010C11464FF00002A0F11F00A0EB0C00F1
:1033F000704711F0004F08BF704731F000413FF4B3
:10340000D5AF0B0C06BF09044FF0100C4FF0000CA9
:103410000B0E04BF09020CF1080C0B0F04BF0901CD
:103420000CF1040C8B0F04BF89000CF1020CCB0FC4
:1034300004BF49000CF1010CCCF1200322FA03F384
:1034400041EA030102FA0CF2A0EB0C0000F10100CA
:10345000704723F07F4720F07F4C80EA030000F0A4
:103460000040ACEB070303F57C5303F1FF032DE9A8
:10347000804909B44FEA144324EA03484FEA154B44
:1034800025EA0B4E0FF2042606EB13273E7803FBCA
:103490000667C7F5000707FB06F64FEAD64606F1B2
:1034A00002064FEA543707FB066CCCF1005C4FEA8A
:1034B0001C472CEA074C0CFB06F507FB06F404EB53
:1034C00015464FEA961649085FEA320234BF0020DB
:1034D0004FF000404FEAD13706FB07FC4FEA1C4C87
:1034E0000CFB0BF7D21B03FB0CF761EB07010CFB8A
:1034F0000EF7B0EB074072EB17420CFB08F734BF36
:10350000A2EB0742B2EB074261EB17414FEA0C44D2
:103510004FEA910706FB07FC4FEA1C4C0CFB0BF72C
:10352000B0EBC74072EB573203FB0CF734BFA2EB92
:10353000C742B2EBC74261EB57310CFB0EF7B0EB61
:10354000C70072EB57720CFB08F734BFA2EBC7023F
:10355000B2EBC70261EB57714FEA816141EA921108
:103560004FEA826242EA90124FEA806004EBCC0498
:10357000039F4FEAD13706FB07FC4FEA1C4C0CFBBC
:103580000BF7D21B03FB0CF761EB07010CFB0EF7EB
:10359000B0EB074072EB17420CFB08F734BFA2EB0D
:1035A0000742B2EB074261EB17414FEA8C5504EB3F
:1035B0009C244FEA910706FB07FC4FEA1C4C0CFBCE
:1035C0000BF7B0EBC74072EB573203FB0CF734BF7D
:1035D000A2EBC742B2EBC74261EB57310CFB0EF7CF
:1035E000B0EBC70072EB57720CFB08F734BFA2EBCD
:1035F000C702B2EBC70261EB57714FEA816141EA42
:1036000092114FEA826242EA90124FEA806015EB13
:103610004C2544F100044FEAD13706FB07FC4FEA82
:103620001C4C0CFB0BF7D21B03FB0CF761EB0701E7
:103630000CFB0EF7B0EB074072EB17420CFB08F7E0
:1036400034BFA2EB0742B2EB074261EB17414FEAEE
:10365000813141EA92414FEA823242EA90424FEA96
:1036600080304FEA0C7615EB1C1544F1000448EA53
:1036700003434EEA0B484FF0000EB2EB080C71EB1F
:10368000030724BF624639464EEB0E0E4FF0000B87
:103690000018524149414BEB0B0BB2EB080C71EB9C
:1036A00003077BF1000B24BF624639464EEB0E0E3A
:1036B0004FF0000B0018524149414BEB0B0BB2EBA2
:1036C000080C71EB03077BF1000B24BF62463946FF
:1036D0004EEB0E0E51EA020718BF46F0010616EB3C
:1036E0000E7655F1000254F1000103D5BDE88901C1
:1036F000BDE80088BDE88901BDE80048B61952411F
:1037000041EB0101A3F10103704780807F7E7D7C46
:103710007B7A7978777676757473727171706F6E63
:103720006E6D6C6C6B6A6A6968686766666564640E
:10373000636362616160605F5F5E5E5D5D5C5C5B98
:103740005B5A5A5959585857575656555555545407
:10375000535352525251515050504F4F4F4E4E4D65
:103760004D4D4C4C4C4B4B4B4A4A4A4949494848B1
:1037700048474747474646464545454444444443F1
:10378000434343424242424141419C46002B30D494
:1037900077002BD04FEA37071CB503B44FF0100069
:1037A0004FF01001BAF1000F06D0BCF1000FDCBFE2
:1037B00040F0080040F008014FF000000FBCBDE8E9
:1037C00010400BF1010BBBF1010F08BF5FEA1707B7
:1037D00022BF12F1010211F101014FF0004143F14A
:1037E000000300F0004043EA00007047F9D3570897
:1037F000D0E746EA06464FEA164613F1400F1FDDB2
:1038000013F1200FDFBF16430A46002120335B422D
:10381000BED0C3F1200746EA06464FEA164602FA32
:1038200007F746EA070622FA03F2C3F1200701FA76
:1038300007F742EA070221FA03F14FF00003A7E776
:1038400046EA020646EA06464FEA164646EA0106F8
:10385000BCBF46EA0646360C4FF000034FF00002AC
:103860004FF0000194E72DE9804C70B49A469346DE
:1038700091E8380007C831EA400C48BF34EA430CED
:1038800003D5FFF7E6FDFFF780FFF0BCBDE8008C35
:103890002DE9804C70B49A46934691E8380007C8E9
:1038A00010F0804F08BF13F0804F03D100F005F8EF
:1038B000FFF76BFFF0BCBDE8008C20F07F4723F0E2
:1038C0007F4C80EA030000F0004007EB0C03A3F5F7
:1038D0007C53A3F1FE0392F0000F00F0B38095F04B
:1038E000000F00F077802DE901494FEA114021EAED
:1038F00000484FEA144624EA064700FB06FC08FB92
:1039000006F607FB08F818EB06484CEB164C00FBD4
:1039100007F718EB07484CEB17404FEA124B22EA27
:103920000B4E4FEA154625EA06470BFB06FC0EFB3D
:1039300006F607FB0EFE1EEB064E4CEB164C0BFB81
:1039400007F71EEB074E4CEB174B18EB0B0840F13B
:10395000000018EB0E0B58EB000840F100008F1A26
:103960004FF000014FF000063CBFC943661B14BF77
:10397000B5EB040C00213CBFC943F61B4FEA1744CA
:1039800027EA04454FEA1C472CEA074C04FB076270
:1039900005FB07F70CFB05F616EB074642EB174253
:1039A00004FB0CFC16EB0C4642EB1C421BEB060620
:1039B00058EB020241414EEA8E0E46EA9E0601D5C0
:1039C000BDE80189B619524141EB0101A3F10103A0
:1039D000BDE801894FEA144524EA05464FEA11473C
:1039E00021EA074C05FB07F406FB07F70CFB06F181
:1039F00011EB074144EB174405FB0CFC11EB0C41A8
:103A000044EB1C444FEA124722EA074C05FB07F23D
:103A100006FB07F70CFB06F616EB074642EB1742D0
:103A200005FB0CFC16EB0C4642EB1C456A1854F1E6
:103A3000000148BF7047B619524141EB0101A3F1A3
:103A40000103704795F0000F37D04FEA114221EA89
:103A500002464FEA144724EA074C02FB07F106FB33
:103A600007F70CFB06F414EB074441EB174102FB8C
:103A70000CFC14EB0C4441EB1C414FEA154725EAC2
:103A8000074C02FB07F506FB07F70CFB06F616EBE7
:103A9000074645EB174502FB0CFC16EB0C4645EBC5
:103AA0001C42121951F1000148BF7047B61952412A
:103AB00041EB0101A3F1010370474FEA144524EAE9
:103AC00005464FEA114721EA074C05FB07F106FBC3
:103AD00007F70CFB06F212EB074241EB174105FB1F
:103AE0000CFC12EB0C4251EB1C414FF0000648BF9E
:103AF0007047921841EB0101A3F10103704749009F
:103B000050EAC12018BF04204A0D18BF40F0010040
:103B100040F2FF72B2EB515F08BF40F00200012893
:103B200008BF052070472DE9F0414F1E00EBC7018B
:103B30000446D1E9000115461E4637F006020DD0B5
:103B40002A46334601F08CFA7F1E04EBC703D3E903
:103B5000002300F0E1FF37F00602F1D1022F25D05B
:103B6000042F13D0062F18BFBDE8F0812A46334634
:103B700001F076FAD4E90A2300F0CEFF2A46334654
:103B800001F06EFAD4E9082300F0C6FF2A46334656
:103B900001F066FAD4E9062300F0BEFF2A46334658
:103BA00001F05EFAD4E9042300F0B6FF2A4633465A
:103BB00001F056FAD4E9022300F0AEFF2A4633465C
:103BC00001F04EFAD4E90023BDE8F04100F0A4BFB3
:103BD000002213461046014901F05AB80000F03F98
:103BE000012201F0A0BF00F097BF0022134610464B
:103BF000114601F04DB840F2013200204FF0E04193
:103C000001F091BF024A0020110701F08CBF0000B3
:103C100001FDFFFF30380A2801D201207047002043
:103C2000704700002DE9F04DC84A002490B0914241
:103C300005DA21F00043934201D805D120B110B03C
:103C4000BDE8F04DFFF7CCBFB1F5801F1BDA53EA9A
:103C5000000209D0002911DA0120FCF76AFB10B03C
:103C6000BDE8F04DFFF7C1BF0220FCF762FBFFF794
:103C7000AFFF10B081F00041BDE8F08D6FF035046A
:103C8000362201F050FF04EB2152C1F31308B04972
:103C9000A2F2FF33414401F4801282F07F6103EB12
:103CA000225281F04051009241EA08010022A94BC2
:103CB00001F0FCFB044608F10200A74EC0F313001C
:103CC0000D467E44032867D2D6E90023204601F042
:103CD00037F91ED10098002802BFD6E9000110B0C4
:103CE000BDE8F08D01F068F907460C469B4A9C4BF5
:103CF00001F0B6F906460D469A4A9B4B38462146D6
:103D000001F0AEF910B032462B46BDE8F04D00F0A0
:103D100003BF4FF05532954B2046294601F0A0F9DC
:103D20000022934B01F0D0FA06460F4622462B465E
:103D30001046194601F094F932463B4601F090F9DD
:103D4000064600980F46F0B101F036F980468A46E3
:103D5000824A834B01F084F932463B4601F0B4FAC3
:103D600022462B4601F0A2FB05460C467D4A7E4BBF
:103D70004046514601F074F910B02A462346BDE88A
:103D8000F04D01F093BB0B4610B032462046294659
:103D9000BDE8F04D01F08ABB00224FF08043204681
:103DA00000F0BAFE02460B462046294600F070FF9E
:103DB00006460F46009801F0FFF8CDE904013246AF
:103DC0003B461046394601F04BF90C9069480C9A75
:103DD0004044019009910B46104601F041F982469A
:103DE000024665488B46C8F151080B4608F5D728AE
:103DF00003217844FFF797FE52465B4601F030F905
:103E00000A905E480D9152465B4604217844FFF7C4
:103E10008AFE099B0C9A01F023F9844601980D9BB8
:103E200040EA080860460A9A00F076FE8346089148
:103E3000B8F1000F4EDD4FF0FF322046294601F069
:103E400072FE22462B4601F00BF9804600988A4606
:103E500060B3DDE90401414A414B01F001F90991E8
:103E600000905A4640465146089B00F055FE3246A7
:103E70003B4601F0F5F8099B009A00F04DFE4246E2
:103E8000534601F021FA22462B4601F00FFB04466F
:103E90000D46DDE90401334A334B01F0E1F810B07F
:103EA00022462B46BDE8F04D01F000BB5A46404685
:103EB000089B00F031FE32463B4601F0D1F8424605
:103EC000534601F001FA10B022462B46BDE8F04DF2
:103ED00001F0FAB9009840B3DDE904011F4A204B14
:103EE00001F0BEF880468A465A4620462946089B7D
:103EF00001F0DCFA32463B4601F0B2F84246534646
:103F000001F0D4FA22462B4601F0D0FA04460D46C1
:103F1000DDE90401134A144B01F0A2F810B0224667
:103F20002B46BDE8F04D01F0C1BA0B465A4620467B
:103F3000294601F0BBFA32463B4601F091F810B039
:103F400022462B46BDE8F04D01F0BEB90000F07FDF
:103F5000645F09000000F03FB21F0000763C793535
:103F6000EF39EA3D0000E0FE422EE63F5555D53FD1
:103F70000000E03F86EBF9FF4A1E0000481E0000EB
:103F80002DE9F041044630480025814205DA21F050
:103F90000042824201D805D124B12046BDE8F0415B
:103FA000FFF71EBEB1F5801F1BDA52EA040008D0ED
:103FB00000290FDA0120FCF7BCF9BDE8F041FFF75A
:103FC00014BE0220FCF7B5F9FFF702FE81F00041B4
:103FD000BDE8F0816FF035053622204601F0A3FDE3
:103FE000044605EB2150A0F2FF32D00F40F2FF3320
:103FF0001B1A0D4663F31F55104400F0DDFF064603
:104000000F4629462046FFF70DFE104A104B01F0DF
:1040100027F804460D460F4A0F4B3046394601F04B
:104020001FF822462B4600F077FD05460C460B4A4A
:104030000B4B3046394601F013F82A462346BDE8BB
:10404000F04100F069BD00000000F07F0EE526158C
:104050007BCBDB3F362BF111F3FE593D00609F50C7
:104060001344D33F2DE9F04D1D460C4698B017463A
:1040700021F0004123F00043002814BF4FF0010C51
:104080004FF0000C0CEB440CFE4A0CEB02064FEA1E
:10409000620C66452BD33E0018BF012606EB450691
:1040A0001644F94A964222D3F84A53EA070C02D042
:1040B000944205D148B918B000201146BDE8F08DF2
:1040C000002808BF4FF0000C01D04FF0010C0CEBA2
:1040D000440212F5001F0AD8002F14BF4FF0010C44
:1040E0004FF0000C0CEB450212F5001F07D918B079
:1040F0003A462B462146BDE8F04DFFF774BD00223D
:10410000DFF88CA3002CB8BF534526DADFF884C350
:104110006345A8BF022220DADFF870C39C451CDC8F
:10412000DFF874C30CEB235CBCF1140F08DDCCF199
:10413000340627FA06FC0CFA06F6BE420DD108E05A
:104140005FB9CCF1140623FA06FC0CFA06F69E427F
:1041500003D10CF00102C2F1020251EA000C19D1A4
:10416000002D17DA002C18BF022A01D0012A07D02F
:104170000220FCF7DEF818B0BDE8F04DFFF728BDCF
:104180000220FCF7D6F8FFF723FD18B081F00041BC
:10419000BDE8F08DB7F1000C6CD1534525D104F189
:1041A000804212F5801201BF00280020B74918B0E4
:1041B00008BFBDE8F08DB548884207DC002DA1BFDF
:1041C0006046294618B0BDE8F08D07E0281E05DAE4
:1041D00080F0004118B06046BDE8F08DAF497944E9
:1041E000D1E9000118B0BDE8F08DDFF8A0C2634549
:1041F00025D1002D1FDA19B1514512D1D8B909E0E6
:10420000002840F0EC82A24A214618B062F31E0159
:10421000BDE8F08D0020214618B060F31E01BDE816
:10422000F08D08DA18B02346BDE8F04D02460020B4
:10423000614600F02DBD18B02146BDE8F08D514516
:1042400018DAB5F1804F0DD0A5F1005CBCF1FF5C30
:1042500010D1B4F1000C0DDB18B06146BDE8F04D93
:1042600000F0ECBB234618B00246BDE8F04D1946FD
:1042700000F0F6BE060024F0004C3BD1D9B1514508
:1042800033D1002C06DD002DA1BF0020514618B00F
:10429000BDE8F08D002C01DD002D1BDB002C13DAB6
:1042A000002D11DB012A4FF0000014BF78497C4932
:1042B00018B0BDE8F08D022A18BF002C0AD0012AE0
:1042C00008D1002C06DA0AE0002CB8BF002D11DA64
:1042D000012A04D0002018B00146BDE8F08D18B0C6
:1042E00000204FF00041BDE8F08DA1F14050B0F149
:1042F0007F601AD0012000EBE47050EA020421D064
:10430000624C521E4FF0000B104304BF4FF0000BE5
:10431000644C654883427CDD644A654893421FDDF6
:10432000884217DB002D25DB37E0002C00DA4AB18C
:10433000022A0CBF01204FF0FF3018B0BDE8F04D4D
:1043400000F03ABE0120FBF7F4FF18B0BDE8F04DD5
:10435000FFF74BBC4D4A8A4202DC002D0ADC1CE010
:10436000814202DA002D18DA04E0484B994220DD40
:10437000002D12DD0220FBF7DCFFFFF73CFC0546B9
:104380000E46002253465846214600F069FE18B0FA
:1043900066F31E012846BDE8F08D0220FBF7C9FF39
:1043A000FFF730FC0A46214618B062F31E01BDE853
:1043B000F08D00223046614601F078F880460E46C6
:1043C0006FF0010201F0AFFB4FF05532394B00F0B6
:1043D0007BFF4246334600F043FE0022364B00F09E
:1043E00073FF82464246334604911046194600F058
:1043F00037FE5246049B00F033FE8A4600904FF091
:10440000C0422E4B4046314600F02AFE2C4A2B4B30
:1044100000E027E0CDE906015146009800F020FEBB
:1044200082460191274A284B4046314600F018FE4B
:104430005246019B01F03AF882460B46024605912E
:10444000DDE9060100F068FBDDE906230026884669
:10445000304601F02BF85246059B00F035FF02462E
:1044600000F07EB90020B1F5801F07DA3522304612
:10447000614601F058FB06466FF0340000EB215016
:1044800024E00000FFFF1F00FFFF0F000000F03FCF
:104490000000F07F0000404301FCFFFF961A00007F
:1044A0000000F0FF0000F0BF0000E0410000F0431A
:1044B000FFFFEF3F5555D53F0000E03F4715F73F61
:1044C000FE822B6544DF5DF80BAE543EA0F2FF3058
:1044D0000190C1F3130040F07F6141F0405102911F
:1044E000FE498842D8BF002004DDFD498142C8BF93
:1044F000012001DD0D9008E000200D900198401C86
:1045000001900298A0F5801002900299F548784435
:104510000B910D9900EBC100D0E900230F933046B9
:104520000A920B9900F0C2FFCDE90601DDE90A21EC
:1045300030460F9B00F0F0FA02460B460020EA4995
:1045400000F0A6FB059102460B460090DDE906014E
:1045500000F086FD1490E5488A464FF00008784444
:104560000299006812904FF0005040EA61010D98E6
:104570000F9B01EB804000F5002109910A9A1298E7
:1045800000F094FF32460B9B00F09EFE42465346DD
:1045900000F066FD0646029140465146099B129A7C
:1045A00000F05EFDDDE9062300F08EFE3246029B40
:1045B00000F07CFF059B009A00F052FD0091149AD8
:1045C000049053461046194600F04AFD064602463E
:1045D000C7480B46029106217844FFF7A4FACDE9BB
:1045E0000510029B32461046194600F039FDDDE900
:1045F000053200F035FD0591064653464046194602
:10460000149A00F089FA009B049A00F029FD3246C2
:10461000059B00F081FACDE905104246534610464D
:10462000194600F01DFD0022B24B02910A9000F0E5
:1046300073FADDE9053200F06FFA0E464246AD4BE3
:10464000404600F033FF029B0A9A00F02FFFDDE99D
:10465000053200F039FE424602910A903346104678
:10466000514600F0FDFCCDE906015346149A02992B
:104670000A9800F0F5FC8A460290334642460099BB
:10468000049800F0EDFC5346029A00F045FA824689
:104690000B4602460591DDE9060100F03DFADDE931
:1046A000062300208846064600F000FF5246059B80
:1046B00000F00AFE824609914FF060428E4B304670
:1046C000414600F0CDFC049006918C4A8A4B50463E
:1046D000099900F0C5FC82460291894A894B30460F
:1046E000414600F0BDFC5246029B00F015FA864B95
:1046F0007B440D9A03EBC203D3E9002300F00CFACC
:104700000E900791019800F057FC0591DDE9061322
:1047100082460E9A049800F0FFF97C4A7A440D9B79
:1047200002EBC303D3E900230093029200F0F4F9F3
:104730005246059B00F0F0F9002688465246304666
:10474000059B00F0B3FE009B029A00F0AFFE069BB3
:10475000049A00F0ABFE079B0E9A00F0B5FD0246EE
:1047600000200B4602903846294600F079FC82462C
:1047700001912B4638461946029A00F097FE3246C0
:10478000434600F06DFC5246019B00F0C5F9074618
:104790008A46324643462946029800F061FC0546A7
:1047A0000E463A46534600F0B7F9594A88469142B8
:1047B00021DBA8EB020353EA000210D12A4633465C
:1047C00000F074FECDE90401524A534B384651467D
:1047D00000F0A2F9DDE9042300F040FD21D202201F
:1047E000FBF7A7FDFFF707FA0A46214618B062F368
:1047F0001E01BDE8F08D494B28F000429A4210D3CB
:10480000474A08EB020353EA00027FF4C6AD2A468A
:10481000334600F04BFE3A46534600F01FFD7FF64C
:10482000BCAD0022019228F000403E493E4A01EB17
:104830002051824223DA481C4FF4801121FA00F003
:1048400040443A4AC0F30A517A44394BA1F2FF314D
:10485000CB4020EA0303C0F3130040F48010C1F101
:104860001401C84012680190B8F1000FBCBF40426B
:1048700001902846314600F019FE05460E462A46AC
:1048800033463846514600F047F94FF0000842469B
:10489000284B4046059100F0E3FBCDE90601264A8E
:1048A000264B4046059900F0DBFB009102902A461A
:1048B00033464046059900F0F9FD3A46534600F06C
:1048C00003FD1F4A1F4B00F0CBFB009B029A00F038
:1048D00023F90746884602460B4635E08E980300CA
:1048E0007AB60B00A61600000000F03F1617000075
:1048F0000C1600000000084009C7EE3FFD033ADC3B
:10490000F5015B14E02F3EBEE4140000A814000083
:1049100000009040FE822B654715973C00CC9040EC
:1049200000346F3F01FCFFFF0000E03F2C1400004B
:10493000FFFF0F00432EE63F396CA80C615C20BEE0
:10494000EF39FAFE422EE63FDDE9060100F0E4F819
:10495000DDE9062305460E4600F0A8FD3A4643462B
:1049600000F0B2FC0F462A46334600901046194626
:1049700000F076FB824602462E4888460B4605210B
:104980007844FFF7D0F85246434600F069FB2A46C8
:10499000334600F099FC80468A463B46284631461D
:1049A000009A00F05DFB3B46009A00F0B5F80691D6
:1049B000009000224FF080434046514600F076FDC3
:1049C0000F460C90424653462846314600F048FBBD
:1049D0003B460C9A00F05CF9069B009A00F066FDDD
:1049E0002A46334600F062FD0022134B00F06CFCB7
:1049F000054601980E4601EB00510815002810DC11
:104A000028463146019A01F08EF8FFF778F804281D
:104A100008BFFFF7F7F828463146019A01F083F8FE
:104A200005460B4618B02A4658462146BDE8F04DCB
:104A300000F016BB941200000000F03F2DE9F04199
:104A400006460F4600F04CFC041E0D4618BF012020
:104A5000284320F00040C0F17F6000F1E040C00F2B
:104A60000ED0301C18BF0120384320F00040C0F1A8
:104A70007F6000F1E040C00F04BF0120FBF759FC4C
:104A800020462946BDE8F08110B500290AD00878F3
:104A9000002807D005487844FBF7B8FF002801D06C
:104AA000002010BD0248784410BD0000CA1200006A
:104AB000C212000021F0004201F00043A2F1605256
:104AC000B2F5801F28BFD2F17F6C0BD95FEA001CC2
:104AD00043EAC20242EB507018BF704728BF20F073
:104AE00001007047B2F5801FBCBF184670474FEAFF
:104AF000410C1CF5001F02D2084600F0DBBF70B568
:104B000000F058FB00000089FFF7F6BF4FF00040AF
:104B1000A0F580007047000010B591EA030F48BF70
:104B200083F0004300F1CA84841A71EB030C05D2B0
:104B3000121943EB0C03001B61EB0C014FEA1154FB
:104B4000A4EB135CDFF81CE11EEA430F18BF9EEADA
:104B5000445F73D021EA045123EA0E0343F4801327
:104B6000DCF1200E32D322FA0CFE10EB0E0023FAF9
:104B70000CFE41EB0E01CCF1200E03FA0EFE10EB01
:104B80000E00CCF1200E51F10001B1F5801F32D2A0
:104B900001EB045112FA0EF2BDE8104058BF704705
:104BA000401C38BF5FEA420218BF7047002814BF9C
:104BB00020F0010041F100014FEA410313F5001F0D
:104BC00038BF7047A1F1C04100F042BB012A43EB5E
:104BD0000302ACF1200CDCF11F0E32BF4FF0000ECF
:104BE00023FA0CF310EB030041EB0451B4EB115F1B
:104BF000D0D0A1EB045101F58011490801EB04511B
:104C00005FEA30000ED350F1000038BF12FA0EFEFA
:104C100008D1BDE81040C9E7401C38BF5FEA420236
:104C2000CAD1C3E7BDE810404FEA410313F5001FA6
:104C300038BF7047A1F1C04100F00ABB9EEA445F53
:104C400008D011EA5E0FBDE8104004BF01F000413A
:104C500000207047BDE8104070B500F0ABFA00BF0F
:104C600064FBBE3E0000E0FF02494FF0000000F090
:104C700028BF00BF0000F87F491058BFC1F1404174
:104C80005B1058BFC3F140438B42EFF30080704785
:104C90002DE9C04130B4DFF8A0C23CEA111418BFBE
:104CA0003CEA131400F0EC801CEA111481EA0305BD
:104CB00044EAD57418BF1CEA131500F0C780A4EBB2
:104CC000050404F17F7404F500344FF0004545EA13
:104CD000C12145EAC32341EA505143EA52534FEA06
:104CE000C0204FEAC222994208BF904200F09C8047
:104CF0004FEA13650FF24016765D4FEA134506FB47
:104D000005F7C7F1807706FB07F74FEAD737A7FB10
:104D100003687642A7FB06CEC8F5803838BFA8F1F5
:104D2000010807FB08E6A6FB028C4FF0000EE6FB2D
:104D300003CEDCF1000CCEF1004E38BFAEF1010E17
:104D4000A6FB0C584FF00007E6FB0E87A1FB08C638
:104D5000A0FB07CE16EB0E064FF0000545F100054F
:104D6000E1FB076515F1E04E7EBFA4F580345FEAF4
:104D700046066D4116F1800745F100054FEA1727F9
:104D800047EA05674FEA15254FEA0666A6F1DE46B3
:104D9000B6F1805F1FD9384605EBC47124F0010CD1
:104DA00001EB0C11BCF1FE6F02D8F0BCBDE8008134
:104DB00024425CBF01F5801E9EEAC47F02D4F0BC91
:104DC000BDE80081244238D4A1F1C041F0BCBDE867
:104DD000004100F03DBA4FEAD02040EA41504FEA8E
:104DE000D1214FEAD22242EA43524FEAD323A7FB12
:104DF000028607FB036605FB02661EEA0E0F58BF1C
:104E0000A6EB0056B6EB00564FEA520E4EEAC37EB2
:104E100018EB0E0E56EB530EBDD518EB02085E4193
:104E20007F1C55F10005B6E74FF480154FF00007E1
:104E30004FF000064FF00008ADE701F1C04101F06E
:104E400000414FF00000F0BCBDE800810CEA1315F2
:104E500011EA0C1F00D00CE013EA0C1F00F02580B3
:104E60004FF0000081EA030101F00041F0BCBDE811
:104E70000081F0BCBDE8004181EA030100F0E8B91F
:104E8000F0BCBDE8004170B500F094F9097EFC3E2D
:104E900000F007B84FF0000081EA030101F0004183
:104EA000704781EA030100F0D3B9F0BCBDE80041CE
:104EB00022494FF000007047FFFDFBF9F7F5F4F2CF
:104EC000F0EEEDEBE9E8E6E4E3E1E0DEDDDBDAD8A5
:104ED000D7D5D4D3D1D0CFCDCCCBCAC8C7C6C5C403
:104EE000C2C1C0BFBEBDBCBBBAB9B8B7B6B5B4B31A
:104EF000B2B1B0AFAEADACABAAA9A8A8A7A6A5A405
:104F0000A3A3A2A1A09F9F9E9D9C9C9B9A999998C8
:104F10009797969595949393929191908F8F8E8E6B
:104F20008D8C8C8B8B8A89898888878786858584F8
:104F300084838382828181800000FF070000F87FE4
:104F400051EA030C17D41CF5801F58BFBCF5801F15
:104F500000F10680994218BF704708BF9042704721
:104F600007D711F5801F58BF13F5801F19D4994238
:104F70007047894270471CF5801F08D5BCF5801F1B
:104F8000F7D58B4218BF704708BF824270474FF475
:104F9000001C1CEB410F38BF1CEB430F01D28B42AE
:104FA000704770B500F006F9922449004FF00051A7
:104FB0004FF08053FFF760BE10F0004248BF404200
:104FC000B0FA80F310FA03F10AD0C3F11D0303F520
:104FD000806302EB03524FEA415002EBD12170474C
:104FE0004FF000007047000051EA030C17D41CF585
:104FF000801F58BFBCF5801F00F10680994218BF82
:10500000704708BF9042704707D711F5801F58BFFF
:1050100013F5801F19D499427047894270471CF5D7
:10502000801F08D5BCF5801FF7D58B4218BF70478D
:1050300008BF824270474FF4001C1CEB410F38BF81
:105040001CEB430F01D28B42704770B500F0B2F8F1
:10505000922449004FF000514FF08053FFF70CBEEF
:1050600070B5DFF848C11CEA111E1EBF1CEA1315FB
:105070009EEA0C0F95EA0C0F00F06F8081EA0304A2
:105080004EEAD47EAE4421EA4C1123EA4C1341F49B
:10509000801143F48013AEF17F7EA1FB024CA0FB94
:1050A0000365361955EB0C05A1FB034C4CF10003CD
:1050B000A0FB021C16EB0C06654153F100030942EC
:1050C00018BF46F0010613F4007F0BD14FEA0331FD
:1050D0004FEA053041EA155140EA165034036FF0AB
:1050E00003020AE04FEAC3214FEAC52041EA5551C5
:1050F00040EA5650F4026FF0020202EB2E4201EB3E
:10510000025585EACE710AD05FEA440C18BF24F03C
:10511000004450F1000041F1000120EAD47040F257
:10512000FE7C624500D270BDA84214BF4FF080449F
:105130004FF04044002E08BF0024BEF1806FA8BF8E
:10514000A1F1C041BDE8704080F2828001F1C04110
:1051500001F000414FF0000070470CEA13159EEA81
:105160000C0F18BF95EA0C0F06D081EA030E4FF022
:1051700000000EF0004170BD00F01CF88900013EF7
:1051800000F007B800F009B84FEA430C5FEA5C5C36
:1051900008D081EA030100F05BB84FEA410C5FEAF6
:1051A0005C5CF6D102494FF0000070470000FF0739
:1051B0000000F87F0EF1020E2EF0030E5EF8046B75
:1051C000364205D4012A43EB030515F5001F12D81A
:1051D000012841EB010C1CF5001F0CD80ED14FEA41
:1051E000D17C0CEB4C0C0CF1020C15F5001F08BF28
:1051F0004CEBD37C04E04FF0080C01E04FEAD37C89
:105200000CEB4C0526FA05F606F00706B6F1040C81
:1052100006D20EEB860CBDE870404CF0010C6047E6
:10522000DFE80CF0090B02024FF00041A1F500216C
:105230004FF0000070BD19461046012851EB0104E3
:1052400018BFD4F5001484BF002001F0004170BDE8
:105250000808A0F500114FEA3101704753EA010C2C
:1052600017D41CF5801F58BFBCF5801F00F10680C5
:105270008B4218BF704708BF8242704707D713F5AB
:10528000801F58BF11F5801F19D48B4270479B4275
:1052900070471CF5801F08D5BCF5801FF7D59942D3
:1052A00018BF704708BF904270474FF4001C1CEBBA
:1052B000430F38BF1CEB410F01D2994270470FB426
:1052C0000CBC03BCFFF7C1BE10B591EA030F81F01F
:1052D00000413FF529AC83F0004300F0EFB8000037
:1052E0002DE9F04101F5801CBCF5001FC0F2C38020
:1052F0004FEA115C21EA0C5141F480110CF1FD0CD4
:105300005FEA5C0C0CF5C07C01D340004941890286
:1053100041EA905187023BA48E0EA45D0A0C04FB67
:1053200004F602FB06F6C6F14046A4FB0662F60D43
:1053300046EA422606FB06F4A4FB01235242C3F1CF
:10534000404338BF5B1EA6FB02420024E6FB032459
:10535000D20B42EA4446A6FB0623A1FB02E2A3FBD2
:1053600007E4A4184FF0000252F10002E3FB0142EF
:105370006442C2F1404E38BFAEF1010EA6FB0423D9
:105380004FF00002E6FB0E32A2FB0346B6194FF0C7
:10539000000454F10004E2FB0264A1FB06E6A4FB56
:1053A00007E816EB08064FF0000858F10008E4FB88
:1053B00001687642C8F1405838BFA8F10108A2FB45
:1053C00006E4A3FB08E52D194FF0000454F1000496
:1053D000E2FB0854A1FB05E6A7FB04E818EB06086E
:1053E0004FF0000656F10006E1FB048618F1200597
:1053F00056F10006A80940EA8660B109A8F11B0829
:1054000008F03F08B8F10A0F1CD901EB0C51BDE8B8
:10541000F08100BFFCF5EEE8E2DDD8D3CFCBC7C307
:10542000C0BDB9B6B4B1AEACA9A7A5A3A19F9D9BC1
:105430009A9896959392908F8D8C8B898887868584
:1054400084838281A0FB006800FB01F208EB420824
:10545000B8EB872807D5341858EB0104D5D5401C84
:1054600051F10001D1E7341A78EB0104CDD4401E8C
:1054700071F10001C9E75FEA4C0C5FEA9C5C0DD159
:1054800005D301F000414FF00000BDE8F081BDE818
:10549000F04170B5FFF78EFE6DDBFFBEBDE8F04159
:1054A00001494FF0000070470000F87F10B591EA05
:1054B000030F48BF83F000433FF536AB841A71EB0E
:1054C000030C07D28CF0004C121943EB0C03001BA9
:1054D00061EB0C014FEA1154A4EB135CDFF89CE183
:1054E0001EEA430F18BF9EEA445F00F0B08021EA35
:1054F000045123EA6E035242C3EB6E0338BF5B1EB6
:10550000DCF1200E25D322FA0CFE10EB0E0043FA3C
:105510000CFE41EB0E01CCF1200E03FA0EFE10EB57
:105520000E00CCF1200E51F1000129D401EB045101
:1055300012FA0EF2BDE8104058BF7047401C1CBF65
:10554000B2F1004F704700280CBF491C20F0010049
:10555000704712EB020E43EB030218BF4FF0010E2F
:105560004EEA4202ACF1200CDCF11E0E54D943FA93
:105570000CFE10EB0E00CCF11E0E51F1FF31D5D513
:105580000EF1010E12FA0EFE404141EB010101EB5A
:10559000445C5FEA5C5C10D901EB045110EBDE70F7
:1055A00038BFBEF1004FBDE8104018BF704700285B
:1055B0000CBF491C20F00100704730D24FEAD42CB8
:1055C00024F4006411F500111BD0B1FA81F20B3AFA
:1055D000A41AA41ED2F12003914030FA03F3194318
:1055E000904001EBCC7101EB0451002CBDE8104060
:1055F000A8BF704701F1C04101F000414FF0000029
:105600007047B0FA80F310FA03F100D110BDE41A2C
:10561000173C4805C90AE4E701EB045110BD4910E5
:105620004FEA300001EB0451BDE8104002E04FF0BA
:10563000000170474A0008BF0042F8D0B2F5001FD1
:1056400028BF704701F000414FF0000070479EEA0C
:10565000445F07D011EA5E0FBDE8104004BF00218F
:1056600000207047BDE8104070B5FFF7A3FD00BFF4
:1056700040DFF63E104683F0004170470000E0FF37
:1056800043004FEAD30C4FEA3C0C43401FBF400796
:105690000CF1605113F0FE4F70471CF0006F03D106
:1056A0000CF00041002070470CF0004343EA5070BA
:1056B00040EACC0010B500F0B7F900BF000000923E
:1056C0004FEA0001FFF7C4BD4FF00041A1F50021F2
:1056D0004FF00000704710B500F0F6F80CBF012045
:1056E000002010BD10B500F0EFF814BF012000201D
:1056F00010BD10B500F030F98CBF0120002010BDA6
:1057000010B500F029F92CBF0120002010BD10B504
:1057100000F056F994BF0120002010BD10B500F034
:105720004FF934BF0120002010BD401058BFC0F118
:105730004040491058BFC1F140418142EFF3008021
:10574000704700004FF47F0C1CEAD0121EBF1CEA09
:10575000D11392EA0C0F93EA0C0F00F0858090EAC7
:10576000010F48BF42F4807240F4000C41F4000085
:105770002CF07F4120F07F4000B5A2EB0302814274
:105780000FF2081CACEB504E9EF800E0C0F1000098
:105790004FEA4E0E00FB0EFC38BF49004FEA2C1CAE
:1057A0000CFB0EF34FEACE1E0EEB635E4FEA112C9C
:1057B0000EFB0CFC4FEAC1214FEA1C5300FB031106
:1057C00002F5FA024FEA112C0EFB0CFC4FEA0131F4
:1057D0004FEADC4C00FB0C1142EB2242C14228BFD5
:1057E00009184CEB03335DF804EB10EB410143EB7C
:1057F000C250B2F57C0F38BF704729D512F0F00FB8
:105800001CBF00F1C04000F000407047008182835F
:105810008485868788898B8C8D8E8F9192939596BF
:1058200097999A9C9D9FA0A2A3A5A7A8AAACAEB049
:10583000B2B3B5B7B9BCBEC0C2C5C7C9CCCED1D44E
:10584000D7D9DCDFE2E6E9ECF0F3F7FAFE0000007E
:105850004FEA400C0CF1807CBCF17E4F28BF7047B2
:10586000B0F1C04000F026B90CEAD11390EA010F64
:1058700048BF42F48072624538BF634507D213F4D3
:105880007F0F16D080EA010000F00040704710B58D
:1058900000F0CAF8097EFC3E00F005B880EA01007D
:1058A00000F00040704780EA010000F0004000F086
:1058B00001B912F47F0F04BF0248704780EA01006B
:1058C00000F0F8B80000C07F50EA010C00F113802E
:1058D0001CF5000F58BFBCF5000F01D4884270477B
:1058E00007D710F5000F58BF11F5000F15D48842E7
:1058F0007047894270471CF5000F04D5BCF5000FB6
:10590000F7D5814270474FF0807C1CEB400F38BFC9
:105910001CEB410F01D28142704710B500F084F8B2
:10592000922449004FF000504FF08051FFF7FDBE28
:10593000B0FA80F310FA03F2C3F19D030AD0D9053F
:1059400001EB1220530638BF704700F1010008BF79
:1059500020F001007047000050EA010C00F11380B4
:105960001CF5000F58BFBCF5000F01D488427047EA
:1059700007D710F5000F58BF11F5000F15D4884256
:105980007047894270471CF5000F04D5BCF5000F25
:10599000F7D5814270474FF0807C1CEB400F38BF39
:1059A0001CEB410F01D28142704710B500F03CF86A
:1059B000922449004FF080504FF00051FFF7B5BEE0
:1059C00050EA010C00F113801CF5000F58BFBCF524
:1059D000000F01D48842704707D710F5000F58BF59
:1059E00011F5000F15D488427047894270471CF5A5
:1059F000000F04D5BCF5000FF7D5814270474FF07A
:105A0000807C1CEB400F38BF1CEB410F01D2814260
:105A1000704710B500F008F8922449004FF000508C
:105A20004FF08051FFF781BE0EF1020E2EF0030EF3
:105A30005EF8044B244204D44FEA4102B2F17F4F96
:105A400011D84FEA4003B3F17F4F0CD80ED14FEA83
:105A5000D07C0CEB4C0C0CF1020CB2F17F4F08BF68
:105A60004CEBD17C04E04FF0080C01E04FEAD17C14
:105A70000CEB4C0324FA03F404F00704B4F1040C17
:105A800006D20EEB840CBDE810404CF0010C6047D0
:105A9000DFE80CF0070802024FF00040A0F580009C
:105AA00010BD0846420018BFD2F1807288BF00F0D6
:105AB000004010BDFF2141EAD050C0057047FAF701
:105AC00016BD0CF00F03092B08BF082000F0598009
:105AD0000A2B0BD0082B18BF704708BF1CF0400FD3
